{
  "address": "0xDD4568319422eAa0F5c74fbC7069571Dae16A463",
  "abi": [
    {
      "inputs": [
        {
          "internalType": "string",
          "name": "name_",
          "type": "string"
        },
        {
          "internalType": "string",
          "name": "symbol_",
          "type": "string"
        },
        {
          "internalType": "address",
          "name": "royaltyRecipient_",
          "type": "address"
        },
        {
          "internalType": "uint96",
          "name": "royaltyBps_",
          "type": "uint96"
        }
      ],
      "stateMutability": "nonpayable",
      "type": "constructor"
    },
    {
      "anonymous": false,
      "inputs": [
        {
          "indexed": true,
          "internalType": "address",
          "name": "owner",
          "type": "address"
        },
        {
          "indexed": true,
          "internalType": "address",
          "name": "approved",
          "type": "address"
        },
        {
          "indexed": true,
          "internalType": "uint256",
          "name": "tokenId",
          "type": "uint256"
        }
      ],
      "name": "Approval",
      "type": "event"
    },
    {
      "anonymous": false,
      "inputs": [
        {
          "indexed": true,
          "internalType": "address",
          "name": "owner",
          "type": "address"
        },
        {
          "indexed": true,
          "internalType": "address",
          "name": "operator",
          "type": "address"
        },
        {
          "indexed": false,
          "internalType": "bool",
          "name": "approved",
          "type": "bool"
        }
      ],
      "name": "ApprovalForAll",
      "type": "event"
    },
    {
      "anonymous": false,
      "inputs": [
        {
          "indexed": false,
          "internalType": "uint256",
          "name": "_fromTokenId",
          "type": "uint256"
        },
        {
          "indexed": false,
          "internalType": "uint256",
          "name": "_toTokenId",
          "type": "uint256"
        }
      ],
      "name": "BatchMetadataUpdate",
      "type": "event"
    },
    {
      "anonymous": false,
      "inputs": [
        {
          "indexed": false,
          "internalType": "uint256",
          "name": "_tokenId",
          "type": "uint256"
        }
      ],
      "name": "MetadataUpdate",
      "type": "event"
    },
    {
      "anonymous": false,
      "inputs": [
        {
          "indexed": true,
          "internalType": "bytes32",
          "name": "role",
          "type": "bytes32"
        },
        {
          "indexed": true,
          "internalType": "bytes32",
          "name": "previousAdminRole",
          "type": "bytes32"
        },
        {
          "indexed": true,
          "internalType": "bytes32",
          "name": "newAdminRole",
          "type": "bytes32"
        }
      ],
      "name": "RoleAdminChanged",
      "type": "event"
    },
    {
      "anonymous": false,
      "inputs": [
        {
          "indexed": true,
          "internalType": "bytes32",
          "name": "role",
          "type": "bytes32"
        },
        {
          "indexed": true,
          "internalType": "address",
          "name": "account",
          "type": "address"
        },
        {
          "indexed": true,
          "internalType": "address",
          "name": "sender",
          "type": "address"
        }
      ],
      "name": "RoleGranted",
      "type": "event"
    },
    {
      "anonymous": false,
      "inputs": [
        {
          "indexed": true,
          "internalType": "bytes32",
          "name": "role",
          "type": "bytes32"
        },
        {
          "indexed": true,
          "internalType": "address",
          "name": "account",
          "type": "address"
        },
        {
          "indexed": true,
          "internalType": "address",
          "name": "sender",
          "type": "address"
        }
      ],
      "name": "RoleRevoked",
      "type": "event"
    },
    {
      "anonymous": false,
      "inputs": [
        {
          "indexed": true,
          "internalType": "address",
          "name": "from",
          "type": "address"
        },
        {
          "indexed": true,
          "internalType": "address",
          "name": "to",
          "type": "address"
        },
        {
          "indexed": true,
          "internalType": "uint256",
          "name": "tokenId",
          "type": "uint256"
        }
      ],
      "name": "Transfer",
      "type": "event"
    },
    {
      "inputs": [],
      "name": "DEFAULT_ADMIN_ROLE",
      "outputs": [
        {
          "internalType": "bytes32",
          "name": "",
          "type": "bytes32"
        }
      ],
      "stateMutability": "view",
      "type": "function"
    },
    {
      "inputs": [],
      "name": "MINTER_ROLE",
      "outputs": [
        {
          "internalType": "bytes32",
          "name": "",
          "type": "bytes32"
        }
      ],
      "stateMutability": "view",
      "type": "function"
    },
    {
      "inputs": [
        {
          "internalType": "address",
          "name": "to",
          "type": "address"
        },
        {
          "internalType": "uint256",
          "name": "tokenId",
          "type": "uint256"
        }
      ],
      "name": "approve",
      "outputs": [],
      "stateMutability": "nonpayable",
      "type": "function"
    },
    {
      "inputs": [
        {
          "internalType": "address",
          "name": "owner",
          "type": "address"
        }
      ],
      "name": "balanceOf",
      "outputs": [
        {
          "internalType": "uint256",
          "name": "",
          "type": "uint256"
        }
      ],
      "stateMutability": "view",
      "type": "function"
    },
    {
      "inputs": [
        {
          "internalType": "uint256",
          "name": "tokenId",
          "type": "uint256"
        }
      ],
      "name": "getApproved",
      "outputs": [
        {
          "internalType": "address",
          "name": "",
          "type": "address"
        }
      ],
      "stateMutability": "view",
      "type": "function"
    },
    {
      "inputs": [
        {
          "internalType": "bytes32",
          "name": "role",
          "type": "bytes32"
        }
      ],
      "name": "getRoleAdmin",
      "outputs": [
        {
          "internalType": "bytes32",
          "name": "",
          "type": "bytes32"
        }
      ],
      "stateMutability": "view",
      "type": "function"
    },
    {
      "inputs": [
        {
          "internalType": "bytes32",
          "name": "role",
          "type": "bytes32"
        },
        {
          "internalType": "address",
          "name": "account",
          "type": "address"
        }
      ],
      "name": "grantRole",
      "outputs": [],
      "stateMutability": "nonpayable",
      "type": "function"
    },
    {
      "inputs": [
        {
          "internalType": "bytes32",
          "name": "role",
          "type": "bytes32"
        },
        {
          "internalType": "address",
          "name": "account",
          "type": "address"
        }
      ],
      "name": "hasRole",
      "outputs": [
        {
          "internalType": "bool",
          "name": "",
          "type": "bool"
        }
      ],
      "stateMutability": "view",
      "type": "function"
    },
    {
      "inputs": [
        {
          "internalType": "address",
          "name": "owner",
          "type": "address"
        },
        {
          "internalType": "address",
          "name": "operator",
          "type": "address"
        }
      ],
      "name": "isApprovedForAll",
      "outputs": [
        {
          "internalType": "bool",
          "name": "",
          "type": "bool"
        }
      ],
      "stateMutability": "view",
      "type": "function"
    },
    {
      "inputs": [
        {
          "internalType": "address",
          "name": "to",
          "type": "address"
        },
        {
          "internalType": "string",
          "name": "uri",
          "type": "string"
        }
      ],
      "name": "mintNew",
      "outputs": [],
      "stateMutability": "nonpayable",
      "type": "function"
    },
    {
      "inputs": [],
      "name": "name",
      "outputs": [
        {
          "internalType": "string",
          "name": "",
          "type": "string"
        }
      ],
      "stateMutability": "view",
      "type": "function"
    },
    {
      "inputs": [
        {
          "internalType": "uint256",
          "name": "tokenId",
          "type": "uint256"
        }
      ],
      "name": "ownerOf",
      "outputs": [
        {
          "internalType": "address",
          "name": "",
          "type": "address"
        }
      ],
      "stateMutability": "view",
      "type": "function"
    },
    {
      "inputs": [
        {
          "internalType": "bytes32",
          "name": "role",
          "type": "bytes32"
        },
        {
          "internalType": "address",
          "name": "account",
          "type": "address"
        }
      ],
      "name": "renounceRole",
      "outputs": [],
      "stateMutability": "nonpayable",
      "type": "function"
    },
    {
      "inputs": [
        {
          "internalType": "bytes32",
          "name": "role",
          "type": "bytes32"
        },
        {
          "internalType": "address",
          "name": "account",
          "type": "address"
        }
      ],
      "name": "revokeRole",
      "outputs": [],
      "stateMutability": "nonpayable",
      "type": "function"
    },
    {
      "inputs": [
        {
          "internalType": "uint256",
          "name": "tokenId",
          "type": "uint256"
        },
        {
          "internalType": "uint256",
          "name": "salePrice",
          "type": "uint256"
        }
      ],
      "name": "royaltyInfo",
      "outputs": [
        {
          "internalType": "address",
          "name": "",
          "type": "address"
        },
        {
          "internalType": "uint256",
          "name": "",
          "type": "uint256"
        }
      ],
      "stateMutability": "view",
      "type": "function"
    },
    {
      "inputs": [
        {
          "internalType": "address",
          "name": "from",
          "type": "address"
        },
        {
          "internalType": "address",
          "name": "to",
          "type": "address"
        },
        {
          "internalType": "uint256",
          "name": "tokenId",
          "type": "uint256"
        }
      ],
      "name": "safeTransferFrom",
      "outputs": [],
      "stateMutability": "nonpayable",
      "type": "function"
    },
    {
      "inputs": [
        {
          "internalType": "address",
          "name": "from",
          "type": "address"
        },
        {
          "internalType": "address",
          "name": "to",
          "type": "address"
        },
        {
          "internalType": "uint256",
          "name": "tokenId",
          "type": "uint256"
        },
        {
          "internalType": "bytes",
          "name": "data",
          "type": "bytes"
        }
      ],
      "name": "safeTransferFrom",
      "outputs": [],
      "stateMutability": "nonpayable",
      "type": "function"
    },
    {
      "inputs": [
        {
          "internalType": "address",
          "name": "operator",
          "type": "address"
        },
        {
          "internalType": "bool",
          "name": "approved",
          "type": "bool"
        }
      ],
      "name": "setApprovalForAll",
      "outputs": [],
      "stateMutability": "nonpayable",
      "type": "function"
    },
    {
      "inputs": [
        {
          "internalType": "bytes4",
          "name": "interfaceId",
          "type": "bytes4"
        }
      ],
      "name": "supportsInterface",
      "outputs": [
        {
          "internalType": "bool",
          "name": "",
          "type": "bool"
        }
      ],
      "stateMutability": "view",
      "type": "function"
    },
    {
      "inputs": [],
      "name": "symbol",
      "outputs": [
        {
          "internalType": "string",
          "name": "",
          "type": "string"
        }
      ],
      "stateMutability": "view",
      "type": "function"
    },
    {
      "inputs": [
        {
          "internalType": "uint256",
          "name": "index",
          "type": "uint256"
        }
      ],
      "name": "tokenByIndex",
      "outputs": [
        {
          "internalType": "uint256",
          "name": "",
          "type": "uint256"
        }
      ],
      "stateMutability": "view",
      "type": "function"
    },
    {
      "inputs": [
        {
          "internalType": "address",
          "name": "owner",
          "type": "address"
        },
        {
          "internalType": "uint256",
          "name": "index",
          "type": "uint256"
        }
      ],
      "name": "tokenOfOwnerByIndex",
      "outputs": [
        {
          "internalType": "uint256",
          "name": "",
          "type": "uint256"
        }
      ],
      "stateMutability": "view",
      "type": "function"
    },
    {
      "inputs": [
        {
          "internalType": "uint256",
          "name": "tokenId",
          "type": "uint256"
        }
      ],
      "name": "tokenURI",
      "outputs": [
        {
          "internalType": "string",
          "name": "",
          "type": "string"
        }
      ],
      "stateMutability": "view",
      "type": "function"
    },
    {
      "inputs": [],
      "name": "totalMinted",
      "outputs": [
        {
          "internalType": "uint256",
          "name": "",
          "type": "uint256"
        }
      ],
      "stateMutability": "view",
      "type": "function"
    },
    {
      "inputs": [],
      "name": "totalSupply",
      "outputs": [
        {
          "internalType": "uint256",
          "name": "",
          "type": "uint256"
        }
      ],
      "stateMutability": "view",
      "type": "function"
    },
    {
      "inputs": [
        {
          "internalType": "address",
          "name": "from",
          "type": "address"
        },
        {
          "internalType": "address",
          "name": "to",
          "type": "address"
        },
        {
          "internalType": "uint256",
          "name": "tokenId",
          "type": "uint256"
        }
      ],
      "name": "transferFrom",
      "outputs": [],
      "stateMutability": "nonpayable",
      "type": "function"
    }
  ],
  "transactionHash": "0xc24752258ccb2534477d7295377f1c44c02e9f83187d60a67d3075b67c432492",
  "args": [
    "Shark721NFT",
    "SHK721",
    "0x0CF9Dcf86Ec3A20BF54E852E99823f2978552ED1",
    100
  ],
  "numDeployments": 1,
  "solcInputHash": "29664bf5bd2f629af5a250a7aa450e26",
  "bytecode": "0x608060405234801561001057600080fd5b50604051612b84380380612b8483398101604081905261002f916102f5565b8383600061003d8382610427565b50600161004a8282610427565b5061005a91506000905033610097565b6100847f9f2df0fed2c77648de5860a4cc508cd0818c85b8b8a1ab4ceeef8d981c8956a633610097565b61008e828261013a565b505050506104e5565b6000828152600d602090815260408083206001600160a01b038516845290915290205460ff16610136576000828152600d602090815260408083206001600160a01b03851684529091529020805460ff191660011790556100f53390565b6001600160a01b0316816001600160a01b0316837f2f8788117e7eff1d82e926ec794901d17c78024a50270940304540a733656f0d60405160405180910390a45b5050565b6127106001600160601b03821611156101ad5760405162461bcd60e51b815260206004820152602a60248201527f455243323938313a20726f79616c7479206665652077696c6c206578636565646044820152692073616c65507269636560b01b60648201526084015b60405180910390fd5b6001600160a01b0382166102035760405162461bcd60e51b815260206004820152601960248201527f455243323938313a20696e76616c69642072656365697665720000000000000060448201526064016101a4565b604080518082019091526001600160a01b039092168083526001600160601b039091166020909201829052600160a01b90910217600b55565b634e487b7160e01b600052604160045260246000fd5b600082601f83011261026357600080fd5b81516001600160401b0381111561027c5761027c61023c565b604051601f8201601f19908116603f011681016001600160401b03811182821017156102aa576102aa61023c565b6040528181528382016020018510156102c257600080fd5b60005b828110156102e1576020818601810151838301820152016102c5565b506000918101602001919091529392505050565b6000806000806080858703121561030b57600080fd5b84516001600160401b0381111561032157600080fd5b61032d87828801610252565b602087015190955090506001600160401b0381111561034b57600080fd5b61035787828801610252565b604087015190945090506001600160a01b038116811461037657600080fd5b60608601519092506001600160601b038116811461039357600080fd5b939692955090935050565b600181811c908216806103b257607f821691505b6020821081036103d257634e487b7160e01b600052602260045260246000fd5b50919050565b601f82111561042257806000526020600020601f840160051c810160208510156103ff5750805b601f840160051c820191505b8181101561041f576000815560010161040b565b50505b505050565b81516001600160401b038111156104405761044061023c565b6104548161044e845461039e565b846103d8565b6020601f82116001811461048857600083156104705750848201515b600019600385901b1c1916600184901b17845561041f565b600084815260208120601f198516915b828110156104b85787850151825560209485019460019092019101610498565b50848210156104d65786840151600019600387901b60f8161c191681555b50505050600190811b01905550565b612690806104f46000396000f3fe608060405234801561001057600080fd5b50600436106101ae5760003560e01c80636352211e116100ee578063a2309ff811610097578063d539139311610071578063d5391393146103b9578063d547741f146103e0578063e985e9c5146103f3578063fd88ef2f1461042f57600080fd5b8063a2309ff81461038b578063b88d4fde14610393578063c87b56dd146103a657600080fd5b806395d89b41116100c857806395d89b4114610368578063a217fddf14610370578063a22cb4651461037857600080fd5b80636352211e1461030957806370a082311461031c57806391d148541461032f57600080fd5b8063248a9ca31161015b5780632f745c59116101355780632f745c59146102bd57806336568abe146102d057806342842e0e146102e35780634f6ccce7146102f657600080fd5b8063248a9ca3146102555780632a55205a146102785780632f2ff15d146102aa57600080fd5b8063095ea7b31161018c578063095ea7b31461021b57806318160ddd1461023057806323b872dd1461024257600080fd5b806301ffc9a7146101b357806306fdde03146101db578063081812fc146101f0575b600080fd5b6101c66101c1366004611fe2565b610442565b60405190151581526020015b60405180910390f35b6101e3610453565b6040516101d2919061204f565b6102036101fe366004612062565b6104e5565b6040516001600160a01b0390911681526020016101d2565b61022e610229366004612097565b61050c565b005b6008545b6040519081526020016101d2565b61022e6102503660046120c1565b610642565b610234610263366004612062565b6000908152600d602052604090206001015490565b61028b6102863660046120fe565b6106b9565b604080516001600160a01b0390931683526020830191909152016101d2565b61022e6102b8366004612120565b610774565b6102346102cb366004612097565b610799565b61022e6102de366004612120565b610841565b61022e6102f13660046120c1565b6108cd565b610234610304366004612062565b6108e8565b610203610317366004612062565b61098c565b61023461032a36600461214c565b6109f1565b6101c661033d366004612120565b6000918252600d602090815260408084206001600160a01b0393909316845291905290205460ff1690565b6101e3610a8b565b610234600081565b61022e610386366004612167565b610a9a565b600e54610234565b61022e6103a1366004612233565b610aa5565b6101e36103b4366004612062565b610b23565b6102347f9f2df0fed2c77648de5860a4cc508cd0818c85b8b8a1ab4ceeef8d981c8956a681565b61022e6103ee366004612120565b610b2e565b6101c66104013660046122af565b6001600160a01b03918216600090815260056020908152604080832093909416825291909152205460ff1690565b61022e61043d3660046122d9565b610b53565b600061044d82610ba8565b92915050565b6060600080546104629061233b565b80601f016020809104026020016040519081016040528092919081815260200182805461048e9061233b565b80156104db5780601f106104b0576101008083540402835291602001916104db565b820191906000526020600020905b8154815290600101906020018083116104be57829003601f168201915b5050505050905090565b60006104f082610be6565b506000908152600460205260409020546001600160a01b031690565b60006105178261098c565b9050806001600160a01b0316836001600160a01b0316036105a55760405162461bcd60e51b815260206004820152602160248201527f4552433732313a20617070726f76616c20746f2063757272656e74206f776e6560448201527f720000000000000000000000000000000000000000000000000000000000000060648201526084015b60405180910390fd5b336001600160a01b03821614806105c157506105c18133610401565b6106335760405162461bcd60e51b815260206004820152603d60248201527f4552433732313a20617070726f76652063616c6c6572206973206e6f7420746f60448201527f6b656e206f776e6572206f7220617070726f76656420666f7220616c6c000000606482015260840161059c565b61063d8383610c4d565b505050565b61064c3382610cc8565b6106ae5760405162461bcd60e51b815260206004820152602d60248201527f4552433732313a2063616c6c6572206973206e6f7420746f6b656e206f776e6560448201526c1c881bdc88185c1c1c9bdd9959609a1b606482015260840161059c565b61063d838383610d47565b6000828152600c602090815260408083208151808301909252546001600160a01b038116808352600160a01b9091046bffffffffffffffffffffffff16928201929092528291610738575060408051808201909152600b546001600160a01b0381168252600160a01b90046bffffffffffffffffffffffff1660208201525b60208101516000906127109061075c906bffffffffffffffffffffffff168761238b565b61076691906123a2565b915196919550909350505050565b6000828152600d602052604090206001015461078f81610f5a565b61063d8383610f64565b60006107a4836109f1565b82106108185760405162461bcd60e51b815260206004820152602b60248201527f455243373231456e756d657261626c653a206f776e657220696e646578206f7560448201527f74206f6620626f756e6473000000000000000000000000000000000000000000606482015260840161059c565b506001600160a01b03919091166000908152600660209081526040808320938352929052205490565b6001600160a01b03811633146108bf5760405162461bcd60e51b815260206004820152602f60248201527f416363657373436f6e74726f6c3a2063616e206f6e6c792072656e6f756e636560448201527f20726f6c657320666f722073656c660000000000000000000000000000000000606482015260840161059c565b6108c98282611006565b5050565b61063d83838360405180602001604052806000815250610aa5565b60006108f360085490565b82106109675760405162461bcd60e51b815260206004820152602c60248201527f455243373231456e756d657261626c653a20676c6f62616c20696e646578206f60448201527f7574206f6620626f756e64730000000000000000000000000000000000000000606482015260840161059c565b6008828154811061097a5761097a6123c4565b90600052602060002001549050919050565b6000818152600260205260408120546001600160a01b03168061044d5760405162461bcd60e51b815260206004820152601860248201527f4552433732313a20696e76616c696420746f6b656e2049440000000000000000604482015260640161059c565b60006001600160a01b038216610a6f5760405162461bcd60e51b815260206004820152602960248201527f4552433732313a2061646472657373207a65726f206973206e6f74206120766160448201527f6c6964206f776e65720000000000000000000000000000000000000000000000606482015260840161059c565b506001600160a01b031660009081526003602052604090205490565b6060600180546104629061233b565b6108c9338383611089565b610aaf3383610cc8565b610b115760405162461bcd60e51b815260206004820152602d60248201527f4552433732313a2063616c6c6572206973206e6f7420746f6b656e206f776e6560448201526c1c881bdc88185c1c1c9bdd9959609a1b606482015260840161059c565b610b1d84848484611157565b50505050565b606061044d826111d5565b6000828152600d6020526040902060010154610b4981610f5a565b61063d8383611006565b7f9f2df0fed2c77648de5860a4cc508cd0818c85b8b8a1ab4ceeef8d981c8956a6610b7d81610f5a565b600e805460009182610b8e836123da565b919050559050610b9e84826112dd565b610b1d81846112f7565b60006001600160e01b031982167f7965db0b00000000000000000000000000000000000000000000000000000000148061044d575061044d826113d1565b6000818152600260205260409020546001600160a01b0316610c4a5760405162461bcd60e51b815260206004820152601860248201527f4552433732313a20696e76616c696420746f6b656e2049440000000000000000604482015260640161059c565b50565b6000818152600460205260409020805473ffffffffffffffffffffffffffffffffffffffff19166001600160a01b0384169081179091558190610c8f8261098c565b6001600160a01b03167f8c5be1e5ebec7d5bd14f71427d1e84f3dd0314c0f7b2291e5b200ac8c7c3b92560405160405180910390a45050565b600080610cd48361098c565b9050806001600160a01b0316846001600160a01b03161480610d1b57506001600160a01b0380821660009081526005602090815260408083209388168352929052205460ff165b80610d3f5750836001600160a01b0316610d34846104e5565b6001600160a01b0316145b949350505050565b826001600160a01b0316610d5a8261098c565b6001600160a01b031614610dbe5760405162461bcd60e51b815260206004820152602560248201527f4552433732313a207472616e736665722066726f6d20696e636f72726563742060448201526437bbb732b960d91b606482015260840161059c565b6001600160a01b038216610e395760405162461bcd60e51b8152602060048201526024808201527f4552433732313a207472616e7366657220746f20746865207a65726f2061646460448201527f7265737300000000000000000000000000000000000000000000000000000000606482015260840161059c565b610e46838383600161140f565b826001600160a01b0316610e598261098c565b6001600160a01b031614610ebd5760405162461bcd60e51b815260206004820152602560248201527f4552433732313a207472616e736665722066726f6d20696e636f72726563742060448201526437bbb732b960d91b606482015260840161059c565b6000818152600460209081526040808320805473ffffffffffffffffffffffffffffffffffffffff199081169091556001600160a01b0387811680865260038552838620805460001901905590871680865283862080546001019055868652600290945282852080549092168417909155905184937fddf252ad1be2c89b69c2b068fc378daa952ba7f163c4a11628f55a4df523b3ef91a4505050565b610c4a813361141b565b6000828152600d602090815260408083206001600160a01b038516845290915290205460ff166108c9576000828152600d602090815260408083206001600160a01b03851684529091529020805460ff19166001179055610fc23390565b6001600160a01b0316816001600160a01b0316837f2f8788117e7eff1d82e926ec794901d17c78024a50270940304540a733656f0d60405160405180910390a45050565b6000828152600d602090815260408083206001600160a01b038516845290915290205460ff16156108c9576000828152600d602090815260408083206001600160a01b0385168085529252808320805460ff1916905551339285917ff6391f5c32d9c69d2a47ea670b442974b53935d1edc7fd64eb21e047a839171b9190a45050565b816001600160a01b0316836001600160a01b0316036110ea5760405162461bcd60e51b815260206004820152601960248201527f4552433732313a20617070726f766520746f2063616c6c657200000000000000604482015260640161059c565b6001600160a01b03838116600081815260056020908152604080832094871680845294825291829020805460ff191686151590811790915591519182527f17307eab39ab6107e8899845ad3d59bd9653f200f220920489ca2b5937696c31910160405180910390a3505050565b611162848484610d47565b61116e84848484611490565b610b1d5760405162461bcd60e51b815260206004820152603260248201527f4552433732313a207472616e7366657220746f206e6f6e20455243373231526560448201527131b2b4bb32b91034b6b83632b6b2b73a32b960711b606482015260840161059c565b60606111e082610be6565b6000828152600a6020526040812080546111f99061233b565b80601f01602080910402602001604051908101604052809291908181526020018280546112259061233b565b80156112725780601f1061124757610100808354040283529160200191611272565b820191906000526020600020905b81548152906001019060200180831161125557829003601f168201915b50505050509050600061129060408051602081019091526000815290565b905080516000036112a2575092915050565b8151156112d45780826040516020016112bc9291906123f3565b60405160208183030381529060405292505050919050565b610d3f846115dc565b6108c9828260405180602001604052806000815250611650565b6000828152600260205260409020546001600160a01b03166113815760405162461bcd60e51b815260206004820152602e60248201527f45524337323155524953746f726167653a2055524920736574206f66206e6f6e60448201527f6578697374656e7420746f6b656e000000000000000000000000000000000000606482015260840161059c565b6000828152600a602052604090206113998282612469565b506040518281527ff8e1a15aba9398e019f0b49df1a4fde98ee17ae345cb5f6b5e2c27f5033e8ce79060200160405180910390a15050565b60006001600160e01b031982167f2a55205a00000000000000000000000000000000000000000000000000000000148061044d575061044d826116ce565b610b1d8484848461170c565b6000828152600d602090815260408083206001600160a01b038516845290915290205460ff166108c95761144e81611848565b61145983602061185a565b60405160200161146a929190612528565b60408051601f198184030181529082905262461bcd60e51b825261059c9160040161204f565b60006001600160a01b0384163b156115d157604051630a85bd0160e11b81526001600160a01b0385169063150b7a02906114d49033908990889088906004016125a9565b6020604051808303816000875af192505050801561150f575060408051601f3d908101601f1916820190925261150c918101906125ea565b60015b6115b7573d80801561153d576040519150601f19603f3d011682016040523d82523d6000602084013e611542565b606091505b5080516000036115af5760405162461bcd60e51b815260206004820152603260248201527f4552433732313a207472616e7366657220746f206e6f6e20455243373231526560448201527131b2b4bb32b91034b6b83632b6b2b73a32b960711b606482015260840161059c565b805181602001fd5b6001600160e01b031916630a85bd0160e11b149050610d3f565b506001949350505050565b60606115e782610be6565b60006115fe60408051602081019091526000815290565b9050600081511161161e5760405180602001604052806000815250611649565b8061162884611a3b565b6040516020016116399291906123f3565b6040516020818303038152906040525b9392505050565b61165a8383611adb565b6116676000848484611490565b61063d5760405162461bcd60e51b815260206004820152603260248201527f4552433732313a207472616e7366657220746f206e6f6e20455243373231526560448201527131b2b4bb32b91034b6b83632b6b2b73a32b960711b606482015260840161059c565b60006001600160e01b031982167f4906490600000000000000000000000000000000000000000000000000000000148061044d575061044d82611c81565b60018111156117835760405162461bcd60e51b815260206004820152603560248201527f455243373231456e756d657261626c653a20636f6e736563757469766520747260448201527f616e7366657273206e6f7420737570706f727465640000000000000000000000606482015260840161059c565b816001600160a01b0385166117df576117da81600880546000838152600960205260408120829055600182018355919091527ff3f7a9fe364faab93b216da50a3214154f22a0a2b415b23a84c8169e8b636ee30155565b611802565b836001600160a01b0316856001600160a01b031614611802576118028582611cbf565b6001600160a01b03841661181e5761181981611d5c565b611841565b846001600160a01b0316846001600160a01b031614611841576118418482611e0b565b5050505050565b606061044d6001600160a01b03831660145b6060600061186983600261238b565b611874906002612607565b67ffffffffffffffff81111561188c5761188c6121a3565b6040519080825280601f01601f1916602001820160405280156118b6576020820181803683370190505b5090507f3000000000000000000000000000000000000000000000000000000000000000816000815181106118ed576118ed6123c4565b60200101906001600160f81b031916908160001a9053507f780000000000000000000000000000000000000000000000000000000000000081600181518110611938576119386123c4565b60200101906001600160f81b031916908160001a905350600061195c84600261238b565b611967906001612607565b90505b60018111156119ec577f303132333435363738396162636465660000000000000000000000000000000085600f16601081106119a8576119a86123c4565b1a60f81b8282815181106119be576119be6123c4565b60200101906001600160f81b031916908160001a90535060049490941c936119e58161261a565b905061196a565b5083156116495760405162461bcd60e51b815260206004820181905260248201527f537472696e67733a20686578206c656e67746820696e73756666696369656e74604482015260640161059c565b60606000611a4883611e4f565b600101905060008167ffffffffffffffff811115611a6857611a686121a3565b6040519080825280601f01601f191660200182016040528015611a92576020820181803683370190505b5090508181016020015b600019017f3031323334353637383961626364656600000000000000000000000000000000600a86061a8153600a8504945084611a9c57509392505050565b6001600160a01b038216611b315760405162461bcd60e51b815260206004820181905260248201527f4552433732313a206d696e7420746f20746865207a65726f2061646472657373604482015260640161059c565b6000818152600260205260409020546001600160a01b031615611b965760405162461bcd60e51b815260206004820152601c60248201527f4552433732313a20746f6b656e20616c7265616479206d696e74656400000000604482015260640161059c565b611ba460008383600161140f565b6000818152600260205260409020546001600160a01b031615611c095760405162461bcd60e51b815260206004820152601c60248201527f4552433732313a20746f6b656e20616c7265616479206d696e74656400000000604482015260640161059c565b6001600160a01b0382166000818152600360209081526040808320805460010190558483526002909152808220805473ffffffffffffffffffffffffffffffffffffffff19168417905551839291907fddf252ad1be2c89b69c2b068fc378daa952ba7f163c4a11628f55a4df523b3ef908290a45050565b60006001600160e01b031982167f780e9d6300000000000000000000000000000000000000000000000000000000148061044d575061044d82611f31565b60006001611ccc846109f1565b611cd69190612631565b600083815260076020526040902054909150808214611d29576001600160a01b03841660009081526006602090815260408083208584528252808320548484528184208190558352600790915290208190555b5060009182526007602090815260408084208490556001600160a01b039094168352600681528383209183525290812055565b600854600090611d6e90600190612631565b60008381526009602052604081205460088054939450909284908110611d9657611d966123c4565b906000526020600020015490508060088381548110611db757611db76123c4565b6000918252602080832090910192909255828152600990915260408082208490558582528120556008805480611def57611def612644565b6001900381819060005260206000200160009055905550505050565b6000611e16836109f1565b6001600160a01b039093166000908152600660209081526040808320868452825280832085905593825260079052919091209190915550565b6000807a184f03e93ff9f4daa797ed6e38ed64bf6a1f0100000000000000008310611e98577a184f03e93ff9f4daa797ed6e38ed64bf6a1f010000000000000000830492506040015b6d04ee2d6d415b85acef81000000008310611ec4576d04ee2d6d415b85acef8100000000830492506020015b662386f26fc100008310611ee257662386f26fc10000830492506010015b6305f5e1008310611efa576305f5e100830492506008015b6127108310611f0e57612710830492506004015b60648310611f20576064830492506002015b600a831061044d5760010192915050565b60006001600160e01b031982167f80ac58cd000000000000000000000000000000000000000000000000000000001480611f9457506001600160e01b031982167f5b5e139f00000000000000000000000000000000000000000000000000000000145b8061044d57507f01ffc9a7000000000000000000000000000000000000000000000000000000006001600160e01b031983161461044d565b6001600160e01b031981168114610c4a57600080fd5b600060208284031215611ff457600080fd5b813561164981611fcc565b60005b8381101561201a578181015183820152602001612002565b50506000910152565b6000815180845261203b816020860160208601611fff565b601f01601f19169290920160200192915050565b6020815260006116496020830184612023565b60006020828403121561207457600080fd5b5035919050565b80356001600160a01b038116811461209257600080fd5b919050565b600080604083850312156120aa57600080fd5b6120b38361207b565b946020939093013593505050565b6000806000606084860312156120d657600080fd5b6120df8461207b565b92506120ed6020850161207b565b929592945050506040919091013590565b6000806040838503121561211157600080fd5b50508035926020909101359150565b6000806040838503121561213357600080fd5b823591506121436020840161207b565b90509250929050565b60006020828403121561215e57600080fd5b6116498261207b565b6000806040838503121561217a57600080fd5b6121838361207b565b91506020830135801515811461219857600080fd5b809150509250929050565b634e487b7160e01b600052604160045260246000fd5b60008067ffffffffffffffff8411156121d4576121d46121a3565b50604051601f19601f85018116603f0116810181811067ffffffffffffffff82111715612203576122036121a3565b60405283815290508082840185101561221b57600080fd5b83836020830137600060208583010152509392505050565b6000806000806080858703121561224957600080fd5b6122528561207b565b93506122606020860161207b565b925060408501359150606085013567ffffffffffffffff81111561228357600080fd5b8501601f8101871361229457600080fd5b6122a3878235602084016121b9565b91505092959194509250565b600080604083850312156122c257600080fd5b6122cb8361207b565b91506121436020840161207b565b600080604083850312156122ec57600080fd5b6122f58361207b565b9150602083013567ffffffffffffffff81111561231157600080fd5b8301601f8101851361232257600080fd5b612331858235602084016121b9565b9150509250929050565b600181811c9082168061234f57607f821691505b60208210810361236f57634e487b7160e01b600052602260045260246000fd5b50919050565b634e487b7160e01b600052601160045260246000fd5b808202811582820484141761044d5761044d612375565b6000826123bf57634e487b7160e01b600052601260045260246000fd5b500490565b634e487b7160e01b600052603260045260246000fd5b6000600182016123ec576123ec612375565b5060010190565b60008351612405818460208801611fff565b835190830190612419818360208801611fff565b01949350505050565b601f82111561063d57806000526020600020601f840160051c810160208510156124495750805b601f840160051c820191505b818110156118415760008155600101612455565b815167ffffffffffffffff811115612483576124836121a3565b61249781612491845461233b565b84612422565b6020601f8211600181146124cb57600083156124b35750848201515b600019600385901b1c1916600184901b178455611841565b600084815260208120601f198516915b828110156124fb57878501518255602094850194600190920191016124db565b50848210156125195786840151600019600387901b60f8161c191681555b50505050600190811b01905550565b7f416363657373436f6e74726f6c3a206163636f756e7420000000000000000000815260008351612560816017850160208801611fff565b7f206973206d697373696e6720726f6c6520000000000000000000000000000000601791840191820152835161259d816028840160208801611fff565b01602801949350505050565b6001600160a01b03851681526001600160a01b03841660208201528260408201526080606082015260006125e06080830184612023565b9695505050505050565b6000602082840312156125fc57600080fd5b815161164981611fcc565b8082018082111561044d5761044d612375565b60008161262957612629612375565b506000190190565b8181038181111561044d5761044d612375565b634e487b7160e01b600052603160045260246000fdfea26469706673582212201e933d96f0a0f6079eaf9a85718ca6d4a99e890d96bd9a5d41128e51ace546fa64736f6c634300081c0033",
  "devdoc": {
    "events": {
      "Approval(address,address,uint256)": {
        "details": "Emitted when `owner` enables `approved` to manage the `tokenId` token."
      },
      "ApprovalForAll(address,address,bool)": {
        "details": "Emitted when `owner` enables or disables (`approved`) `operator` to manage all of its assets."
      },
      "BatchMetadataUpdate(uint256,uint256)": {
        "details": "This event emits when the metadata of a range of tokens is changed. So that the third-party platforms such as NFT market could timely update the images and related attributes of the NFTs."
      },
      "MetadataUpdate(uint256)": {
        "details": "This event emits when the metadata of a token is changed. So that the third-party platforms such as NFT market could timely update the images and related attributes of the NFT."
      },
      "RoleAdminChanged(bytes32,bytes32,bytes32)": {
        "details": "Emitted when `newAdminRole` is set as ``role``'s admin role, replacing `previousAdminRole` `DEFAULT_ADMIN_ROLE` is the starting admin for all roles, despite {RoleAdminChanged} not being emitted signaling this. _Available since v3.1._"
      },
      "RoleGranted(bytes32,address,address)": {
        "details": "Emitted when `account` is granted `role`. `sender` is the account that originated the contract call, an admin role bearer except when using {AccessControl-_setupRole}."
      },
      "RoleRevoked(bytes32,address,address)": {
        "details": "Emitted when `account` is revoked `role`. `sender` is the account that originated the contract call:   - if using `revokeRole`, it is the admin role bearer   - if using `renounceRole`, it is the role bearer (i.e. `account`)"
      },
      "Transfer(address,address,uint256)": {
        "details": "Emitted when `tokenId` token is transferred from `from` to `to`."
      }
    },
    "kind": "dev",
    "methods": {
      "approve(address,uint256)": {
        "details": "See {IERC721-approve}."
      },
      "balanceOf(address)": {
        "details": "See {IERC721-balanceOf}."
      },
      "getApproved(uint256)": {
        "details": "See {IERC721-getApproved}."
      },
      "getRoleAdmin(bytes32)": {
        "details": "Returns the admin role that controls `role`. See {grantRole} and {revokeRole}. To change a role's admin, use {_setRoleAdmin}."
      },
      "grantRole(bytes32,address)": {
        "details": "Grants `role` to `account`. If `account` had not been already granted `role`, emits a {RoleGranted} event. Requirements: - the caller must have ``role``'s admin role. May emit a {RoleGranted} event."
      },
      "hasRole(bytes32,address)": {
        "details": "Returns `true` if `account` has been granted `role`."
      },
      "isApprovedForAll(address,address)": {
        "details": "See {IERC721-isApprovedForAll}."
      },
      "name()": {
        "details": "See {IERC721Metadata-name}."
      },
      "ownerOf(uint256)": {
        "details": "See {IERC721-ownerOf}."
      },
      "renounceRole(bytes32,address)": {
        "details": "Revokes `role` from the calling account. Roles are often managed via {grantRole} and {revokeRole}: this function's purpose is to provide a mechanism for accounts to lose their privileges if they are compromised (such as when a trusted device is misplaced). If the calling account had been revoked `role`, emits a {RoleRevoked} event. Requirements: - the caller must be `account`. May emit a {RoleRevoked} event."
      },
      "revokeRole(bytes32,address)": {
        "details": "Revokes `role` from `account`. If `account` had been granted `role`, emits a {RoleRevoked} event. Requirements: - the caller must have ``role``'s admin role. May emit a {RoleRevoked} event."
      },
      "royaltyInfo(uint256,uint256)": {
        "details": "Returns how much royalty is owed and to whom, based on a sale price that may be denominated in any unit of exchange. The royalty amount is denominated and should be paid in that same unit of exchange."
      },
      "safeTransferFrom(address,address,uint256)": {
        "details": "See {IERC721-safeTransferFrom}."
      },
      "safeTransferFrom(address,address,uint256,bytes)": {
        "details": "See {IERC721-safeTransferFrom}."
      },
      "setApprovalForAll(address,bool)": {
        "details": "See {IERC721-setApprovalForAll}."
      },
      "supportsInterface(bytes4)": {
        "details": "ERC165: include URIStorage"
      },
      "symbol()": {
        "details": "See {IERC721Metadata-symbol}."
      },
      "tokenByIndex(uint256)": {
        "details": "See {IERC721Enumerable-tokenByIndex}."
      },
      "tokenOfOwnerByIndex(address,uint256)": {
        "details": "See {IERC721Enumerable-tokenOfOwnerByIndex}."
      },
      "tokenURI(uint256)": {
        "details": "tokenURI comes from URIStorage"
      },
      "totalSupply()": {
        "details": "See {IERC721Enumerable-totalSupply}."
      },
      "transferFrom(address,address,uint256)": {
        "details": "See {IERC721-transferFrom}."
      }
    },
    "version": 1
  },
  "userdoc": {
    "kind": "user",
    "methods": {},
    "version": 1
  },
  "storageLayout": {
    "storage": [
      {
        "astId": 461,
        "contract": "contracts/Shark721NFT.sol:Shark721NFT",
        "label": "_name",
        "offset": 0,
        "slot": "0",
        "type": "t_string_storage"
      },
      {
        "astId": 463,
        "contract": "contracts/Shark721NFT.sol:Shark721NFT",
        "label": "_symbol",
        "offset": 0,
        "slot": "1",
        "type": "t_string_storage"
      },
      {
        "astId": 467,
        "contract": "contracts/Shark721NFT.sol:Shark721NFT",
        "label": "_owners",
        "offset": 0,
        "slot": "2",
        "type": "t_mapping(t_uint256,t_address)"
      },
      {
        "astId": 471,
        "contract": "contracts/Shark721NFT.sol:Shark721NFT",
        "label": "_balances",
        "offset": 0,
        "slot": "3",
        "type": "t_mapping(t_address,t_uint256)"
      },
      {
        "astId": 475,
        "contract": "contracts/Shark721NFT.sol:Shark721NFT",
        "label": "_tokenApprovals",
        "offset": 0,
        "slot": "4",
        "type": "t_mapping(t_uint256,t_address)"
      },
      {
        "astId": 481,
        "contract": "contracts/Shark721NFT.sol:Shark721NFT",
        "label": "_operatorApprovals",
        "offset": 0,
        "slot": "5",
        "type": "t_mapping(t_address,t_mapping(t_address,t_bool))"
      },
      {
        "astId": 1511,
        "contract": "contracts/Shark721NFT.sol:Shark721NFT",
        "label": "_ownedTokens",
        "offset": 0,
        "slot": "6",
        "type": "t_mapping(t_address,t_mapping(t_uint256,t_uint256))"
      },
      {
        "astId": 1515,
        "contract": "contracts/Shark721NFT.sol:Shark721NFT",
        "label": "_ownedTokensIndex",
        "offset": 0,
        "slot": "7",
        "type": "t_mapping(t_uint256,t_uint256)"
      },
      {
        "astId": 1518,
        "contract": "contracts/Shark721NFT.sol:Shark721NFT",
        "label": "_allTokens",
        "offset": 0,
        "slot": "8",
        "type": "t_array(t_uint256)dyn_storage"
      },
      {
        "astId": 1522,
        "contract": "contracts/Shark721NFT.sol:Shark721NFT",
        "label": "_allTokensIndex",
        "offset": 0,
        "slot": "9",
        "type": "t_mapping(t_uint256,t_uint256)"
      },
      {
        "astId": 1866,
        "contract": "contracts/Shark721NFT.sol:Shark721NFT",
        "label": "_tokenURIs",
        "offset": 0,
        "slot": "10",
        "type": "t_mapping(t_uint256,t_string_storage)"
      },
      {
        "astId": 2081,
        "contract": "contracts/Shark721NFT.sol:Shark721NFT",
        "label": "_defaultRoyaltyInfo",
        "offset": 0,
        "slot": "11",
        "type": "t_struct(RoyaltyInfo)2078_storage"
      },
      {
        "astId": 2086,
        "contract": "contracts/Shark721NFT.sol:Shark721NFT",
        "label": "_tokenRoyaltyInfo",
        "offset": 0,
        "slot": "12",
        "type": "t_mapping(t_uint256,t_struct(RoyaltyInfo)2078_storage)"
      },
      {
        "astId": 24,
        "contract": "contracts/Shark721NFT.sol:Shark721NFT",
        "label": "_roles",
        "offset": 0,
        "slot": "13",
        "type": "t_mapping(t_bytes32,t_struct(RoleData)19_storage)"
      },
      {
        "astId": 3882,
        "contract": "contracts/Shark721NFT.sol:Shark721NFT",
        "label": "_currentTokenId",
        "offset": 0,
        "slot": "14",
        "type": "t_uint256"
      }
    ],
    "types": {
      "t_address": {
        "encoding": "inplace",
        "label": "address",
        "numberOfBytes": "20"
      },
      "t_array(t_uint256)dyn_storage": {
        "base": "t_uint256",
        "encoding": "dynamic_array",
        "label": "uint256[]",
        "numberOfBytes": "32"
      },
      "t_bool": {
        "encoding": "inplace",
        "label": "bool",
        "numberOfBytes": "1"
      },
      "t_bytes32": {
        "encoding": "inplace",
        "label": "bytes32",
        "numberOfBytes": "32"
      },
      "t_mapping(t_address,t_bool)": {
        "encoding": "mapping",
        "key": "t_address",
        "label": "mapping(address => bool)",
        "numberOfBytes": "32",
        "value": "t_bool"
      },
      "t_mapping(t_address,t_mapping(t_address,t_bool))": {
        "encoding": "mapping",
        "key": "t_address",
        "label": "mapping(address => mapping(address => bool))",
        "numberOfBytes": "32",
        "value": "t_mapping(t_address,t_bool)"
      },
      "t_mapping(t_address,t_mapping(t_uint256,t_uint256))": {
        "encoding": "mapping",
        "key": "t_address",
        "label": "mapping(address => mapping(uint256 => uint256))",
        "numberOfBytes": "32",
        "value": "t_mapping(t_uint256,t_uint256)"
      },
      "t_mapping(t_address,t_uint256)": {
        "encoding": "mapping",
        "key": "t_address",
        "label": "mapping(address => uint256)",
        "numberOfBytes": "32",
        "value": "t_uint256"
      },
      "t_mapping(t_bytes32,t_struct(RoleData)19_storage)": {
        "encoding": "mapping",
        "key": "t_bytes32",
        "label": "mapping(bytes32 => struct AccessControl.RoleData)",
        "numberOfBytes": "32",
        "value": "t_struct(RoleData)19_storage"
      },
      "t_mapping(t_uint256,t_address)": {
        "encoding": "mapping",
        "key": "t_uint256",
        "label": "mapping(uint256 => address)",
        "numberOfBytes": "32",
        "value": "t_address"
      },
      "t_mapping(t_uint256,t_string_storage)": {
        "encoding": "mapping",
        "key": "t_uint256",
        "label": "mapping(uint256 => string)",
        "numberOfBytes": "32",
        "value": "t_string_storage"
      },
      "t_mapping(t_uint256,t_struct(RoyaltyInfo)2078_storage)": {
        "encoding": "mapping",
        "key": "t_uint256",
        "label": "mapping(uint256 => struct ERC2981.RoyaltyInfo)",
        "numberOfBytes": "32",
        "value": "t_struct(RoyaltyInfo)2078_storage"
      },
      "t_mapping(t_uint256,t_uint256)": {
        "encoding": "mapping",
        "key": "t_uint256",
        "label": "mapping(uint256 => uint256)",
        "numberOfBytes": "32",
        "value": "t_uint256"
      },
      "t_string_storage": {
        "encoding": "bytes",
        "label": "string",
        "numberOfBytes": "32"
      },
      "t_struct(RoleData)19_storage": {
        "encoding": "inplace",
        "label": "struct AccessControl.RoleData",
        "members": [
          {
            "astId": 16,
            "contract": "contracts/Shark721NFT.sol:Shark721NFT",
            "label": "members",
            "offset": 0,
            "slot": "0",
            "type": "t_mapping(t_address,t_bool)"
          },
          {
            "astId": 18,
            "contract": "contracts/Shark721NFT.sol:Shark721NFT",
            "label": "adminRole",
            "offset": 0,
            "slot": "1",
            "type": "t_bytes32"
          }
        ],
        "numberOfBytes": "64"
      },
      "t_struct(RoyaltyInfo)2078_storage": {
        "encoding": "inplace",
        "label": "struct ERC2981.RoyaltyInfo",
        "members": [
          {
            "astId": 2075,
            "contract": "contracts/Shark721NFT.sol:Shark721NFT",
            "label": "receiver",
            "offset": 0,
            "slot": "0",
            "type": "t_address"
          },
          {
            "astId": 2077,
            "contract": "contracts/Shark721NFT.sol:Shark721NFT",
            "label": "royaltyFraction",
            "offset": 20,
            "slot": "0",
            "type": "t_uint96"
          }
        ],
        "numberOfBytes": "32"
      },
      "t_uint256": {
        "encoding": "inplace",
        "label": "uint256",
        "numberOfBytes": "32"
      },
      "t_uint96": {
        "encoding": "inplace",
        "label": "uint96",
        "numberOfBytes": "12"
      }
    }
  }
}